:020000040800F2
:10000000002800200D21000851210008512100087E
:100010005121000851210008512100080000000072
:100020000000000000000000000000005121000856
:10003000512100080000000051210008250200089D
:1000400051210008512100085121000851210008C8
:1000500051210008512100085121000851210008B8
:1000600051210008512100085121000851210008A8
:100070005121000851210008512100085121000898
:100080005121000851210008512100085121000888
:100090005121000851210008512100085121000878
:1000A0005121000851210008512100085121000868
:1000B0005121000851210008512100085121000858
:1000C0005121000851210008512100085121000848
:1000D0005121000851210008512100085121000838
:1000E0005121000851210008512100085121000828
:1000F0005121000800000000000000000000000086
:0C01000000000000000000005FF808F1A3
:10010C0010B50446ADF57B6D01A800F023F80DF198
:10011C00090000F00DFA3CB1012C05D0042C04BFF1
:10012C0002238DF80B3001E08DF80B4022464FF482
:10013C00FA734FF4FA6104A800F030FA01A800F049
:10014C0019F801A840F6AC7100F092F90DF57B6D31
:10015C0010BD00BF064BC0F801306FF00B030372EB
:10016C00012343726FF02F0383720723C37270470E
:10017C006F120340002310B5421C00F6AC7112F84C
:10018C00014B914283EA0403F9D1037010BD00BF07
:10019C0008B500F0C3FC012000F020FD212000F088
:1001AC0077FE0028FAD0012000F04CFD002000F072
:1001BC005BFD002000F062FD002000F069FD01F005
:1001CC0047FF002008BD00BF30B585B0684600F081
:1001DC0069FD019B0A4AA2FB03239B09013BB3F176
:1001EC00807F09D2F02500200721064A064C536077
:1001FC0084F8235090601160002005B030BD00BF22
:10020C00D34D621010E000E000ED00E0014BD3E9AB
:10021C0000017047200000200449D1E9002301327D
:10022C0043F10003C1E90023704700BF2000002008
:10023C0001212DE9F041254E84B0084600F0B0FDB7
:10024C0030460722022100F04FFF072230460321DF
:10025C0000F04AFF0423002401274FF0020804ADEC
:10026C0045F8103D294630468DF806408DF807704C
:10027C008DF8048000F0AEFE08233046294600932A
:10028C008DF8048000F0A6FE39464FF4003000F0E3
:10029C009FFD4FF4E1320C23A6F5DE36294630469D
:1002AC000092ADF80A30ADF80440ADF80640ADF858
:1002BC000840ADF80C4000F083FF3046394601F0A1
:1002CC0001F8204604B0BDE8F08100BF00000240F8
:1002DC0010B504468021054801F0EAF80028F9D051
:1002EC002146024801F022F8002010BD00440040D5
:1002FC0099B170B506460D46094C8021204601F097
:10030C00D7F80028F9D0013D31782046ADB201F084
:10031C000DF8002DF1D1002070BD0020704700BFFA
:10032C000044004010B5012184B0102000F050FDB5
:10033C0001A801F0ABF94FF4FA730F22094C01A993
:10034C0020460293ADF8042001F070F920460022FB
:10035C00012101F051FD2046202101F0E7FD002094
:10036C0004B010BD0010004010B5054C0021204613
:10037C0001F0A0F92046012101F0E8F9002010BDA0
:10038C000010004008B50146024801F095F9002024
:10039C0008BD00BF0010004008B50021024801F064
:1003AC00D5F9002008BD00BF0010004001212DE947
:1003BC00F041264E84B0084600F0F2FC304607228D
:1003CC00092100F091FE072230460A2100F08CFE34
:1003DC004FF40073002401274FF0020804AD45F8D8
:1003EC00103D294630468DF806408DF807708DF883
:1003FC00048000F0EFFD4FF48063304629460093F3
:10040C008DF8048000F0E6FD39464FF4804000F092
:10041C00D3FC4FF4E1320C23A6F54846294630466E
:10042C000092ADF80A30ADF80440ADF80640ADF8D6
:10043C000840ADF80C4000F0C3FE3046394600F0E1
:10044C0041FF204604B0BDE8F08100BF000002402F
:10045C0010B504468021054801F02AF80028F9D08F
:10046C002146024800F062FF002010BD0038014018
:10047C00A9B170B505464E1EB6B20136094C0644FC
:10048C008021204601F014F80028F9D015F8011B42
:10049C00204600F04BFFB542F2D1002070BD002089
:1004AC00704700BF0038014008B5FFF7C1FEFFF7E9
:1004BC007DFFFFF737FF00F005F800F0E3F80020B0
:1004CC0008BD00BF012130B50024032583B00846C8
:1004DC0000F066FC6946134800958DF804508DF8C1
:1004EC0006408DF8074000F075FD0121022000F058
:1004FC0057FC40F2012369460B4800938DF80450D9
:10050C008DF806408DF8074000F064FD01214FF492
:10051C00007000F051FC054800F0DAF8204603B0FA
:10052C0030BD00BF00000240000402400024014026
:10053C0010B586B00446684600F004F900236946FD
:10054C001548029300F0D8F808211348052301221E
:10055C0000F056F90121104800F00EF940210E4828
:10056C0000F0C0FA0028F9D00B4800F0CFF90221B6
:10057C00094800F0B7FA0028F9D00221064800F02B
:10058C00B7FA054800F0F2F900212080024800F08B
:10059C00F3F8002006B010BD00240140F0B587B080
:1005AC00054668461E4617460C4600F0CBF84FF041
:1005BC0080524FF02063694620480292039300F06A
:1005CC009BF83946052301221C4800F019F93046E6
:1005DC00FFF7D8FE0121194800F0CEF8174E402144
:1005EC00304600F07FFA0028F9D0FFF7BDFEDCB1F1
:1005FC00661EB6B20136114C05EB460602212046AA
:10060C0000F070FA0028F9D003214FF4F87000F0D4
:10061C0017F8204600F0AAF9022125F8020B204613
:10062C0000F066FAB542E9D1FFF7B6FE00210348A7
:10063C0000F0A2F8002007B0F0BD00BF002401407C
:10064C0031B1012914D0022916D0032904D07047E6
:10065C0001460B4800F036BD10B50446014608486B
:10066C0000F03CFD2146BDE81040054800F036BDC9
:10067C000146034800F028BD0146014800F02EBD9C
:10068C000004024070B5012182B0022000F088FB0A
:10069C00684600F0E7FC0024012202234FF4F876B0
:1006AC000A4D694628468DF804208DF805300096D1
:1006BC008DF806408DF8074000F08CFC284631463A
:1006CC0000F002FD204602B070BD00BF00040240E5
:1006DC0008B5084B984200D008BD01214FF40070BA
:1006EC0000F08EFBBDE8084000214FF4007000F0D4
:1006FC0087BB00BF00240140436870B423F04073F3
:10070C000C790A6823F4807343EA0423134343608F
:10071C00CE680B6985688C68094A33432A402343A9
:10072C004C79134343EA440383600A7D036B013A1B
:10073C00D2B223F0F87343EA0253036370BC7047E0
:10074C00FDF7FFC000234FF040710122C16002751C
:10075C00036003714371836003617047034A01684E
:10076C00536823F440330B43536070470027014018
:10077C0000230360704700BF836819B923F001039D
:10078C008360704743F0010383607047836819B935
:10079C0023F004038360704743F0040383607047C5
:1007AC0043681AB923EA010141607047194341605B
:1007BC00704700BF836823F0F003194381607047D2
:1007CC00436823F4400323F40073194341607047DA
:1007DC008162C262704700BF436823F01F03194354
:1007EC0041607047054A536818B923F400035360FD
:1007FC00704743F400035360704700BF002701406B
:10080C001D2970B44FF0070621D9A1F11E0404EB89
:10081C004404C56DA64003FA04F425EA06031C4300
:10082C00C465062A4FF01F0423D90C2A3DD9122A7D
:10083C005FD9182A51D9193A02EB8202036B944002
:10084C0023EA040391401943016370BC70471329D8
:10085C001CD9A1F1140404EB4404C568A64003FAA6
:10086C0004F425EA06031C43062AC4604FF01F0457
:10087C00DBD8013A02EB8202036C944001FA02F2DB
:10088C0023EA04010A43026470BC7047092919D990
:10089C00A1F10A0404EB44040569A64003FA04F42C
:1008AC0025EA06031C430461BBE7073A02EB82020C
:1008BC00C36B944001FA02F223EA04010A43C263B7
:1008CC0070BC704701EB41044569A64003FA04F47F
:1008DC0025EA06031C434461A3E7133A02EB8202A8
:1008EC00436B944001FA02F223EA04010A43426387
:1008FC00E6E70D3A02EB8202836B944001FA02F2B6
:10090C0023EA04010A43826370BC7047836843F096
:10091C0080438360704700BF8068C0F3807070476D
:10092C00836819B923F480638360704743F4806350
:10093C0083607047836819B923F0020383607047A2
:10094C0043F00203836070474368013923F460432A
:10095C0043EA413343607047436819B923F4006399
:10096C004360704743F4006343607047806D80B20E
:10097C00704700BF836819B923F480738360704794
:10098C0043F4807383607047836819B923F4007350
:10099C008360704743F40073836070471D2970B403
:1009AC004FF007062BD813291CD8092934D801EB92
:1009BC0041044569A64003FA04F425EA06031C43E6
:1009CC0044611F24436C0232C3F30155521BD2B253
:1009DC0002EB8202944023EA0403914019434164E0
:1009EC0070BC7047A1F1140404EB4404C568A64024
:1009FC0003FA04F425EA06031C43C460E1E7A1F101
:100A0C001E0404EB4404C56DA64003FA04F425EA65
:100A1C0006031C43C465D4E7A1F10A0404EB4404A7
:100A2C000569A64003FA04F425EA06031C43046195
:100A3C00C7E700BF436C013923F4401343EA015369
:100A4C0043647047002382B001930190019B1944C9
:100A5C000191019B1A6002B0704700BF836823F4B8
:100A6C007023194381607047836823F44013194342
:100A7C0081607047836843F480038360704700BFD4
:100A8C008068C0F380507047436819B923F48063C1
:100A9C004360704743F4806343607047436819B9FF
:100AAC0023F480534360704743F480534360704792
:100ABC00002382B001930190019B303319440191C2
:100ACC00019B186880B202B0704700BF0123C9B205
:100ADC008B4041681AB921EA0303436070470B430A
:100AEC00436070470368194214BF0120002070470F
:100AFC00C9430160704700BF4268006810EA1120CA
:100B0C0007D00123C9B203FA01F1114214BF1846F0
:100B1C00002070476FEA11210160704700200C4BD8
:100B2C000C4A196841F48071196099680A409A60FE
:100B3C001A6822F0885222F001121A601A6822F404
:100B4C0080221A609A6822F47D029A60D8607047FD
:100B5C00003802400CC0FF880022024B1A7018703B
:100B6C00704700BF02380240002382B00A4A01934A
:100B7C0002E0B3F5A04F08D0136813F4003F019BBB
:100B8C0003F101030193019BF3D0034B1868C0F3ED
:100B9C00404002B0704700BF00380240014B187053
:100BAC00704700BF07380240034A536823F4604380
:100BBC0018435060704700BF00380240014B18606A
:100BCC00704700BF20004742034A536823F4F85390
:100BDC0043EA00205060704700380240014B186017
:100BEC00704700BF000047420022024B1A70187079
:100BFC00704700BF35380240014B1860704700BF8A
:100C0C00800647420243024B0A431A70704700BFEA
:100C1C000A380240014B1860704700BF6000474221
:100C2C00014B1860704700BF70004742014B1860C1
:100C3C00704700BFAC064742014B01431970704727
:100C4C000B380240034A936823F003031843906067
:100C5C00704700BF00380240024B986800F00C004F
:100C6C00704700BF00380240034A936823F0F0033A
:100C7C0018439060704700BF00380240034A9368E5
:100C8C0023F4E06318439060704700BF00380240C3
:100C9C00034A936823F4605343EAC00090607047A2
:100CAC0000380240284B10B49B6803F00C030C2B4B
:100CBC0008D8DFE803F0070707072E0707072A07FE
:100CCC00070732004FF400431F49204A4968C1F31B
:100CDC00423101318B4003601B4CA168C1F30311FD
:100CEC001144097BCB404360A168C1F3022111443C
:100CFC00097B23FA01F18160A16810BCC1F3C22108
:100D0C000A44127BD340C3607047114B0F4A0360F7
:100D1C00E2E7104B0D4A0360DEE70B4C0B4AA1686F
:100D2C00A368C1F38341515CA468C9B2E40354BF06
:100D3C00084C074CC3F3815304FB01F10133B1FBA5
:100D4C00F3F30360C8E700BF003802400000002046
:100D5C0000127A000024F40000F44032B2F5403F57
:100D6C0007D1084900F0C0400B6823F0C04318437A
:100D7C000860044B596B21F440315963596B0A4399
:100D8C005A63704700380240014B1860704700BF2F
:100D9C00D8064742014B1860704700BFDC0647423B
:100DAC00044AD36919B923EA0000D061704718438B
:100DBC00D061704700380240044A136A19B923EA1B
:100DCC0000001062704718431062704700380240F0
:100DDC00044A536A19B923EA000050627047184359
:100DEC005062704700380240044A136919B923EA6B
:100DFC0000001061704718431061704700380240C2
:100E0C00044A536919B923EA00005061704718432A
:100E1C005061704700380240044A936919B923EABB
:100E2C000000906170471843906170470038024091
:100E3C00044A936A19B923EA000090627047184378
:100E4C009062704700380240044AD36A19B923EA09
:100E5C000000D06270471843D062704700380240DF
:100E6C00044A136B19B923EA000010637047184346
:100E7C001063704700380240044A137819B923EA0A
:100E8C000000107070471843107070470D38024006
:100E9C004309012B054B00F01F000CBF1B685B6B5B
:100EAC0023FA00F000F00100704700BF0038024048
:100EBC00024A536B43F0807353637047003802400F
:100ECC00034BDB68184214BF01200020704700BFA1
:100EDC0000380240014B1870704700BF0E380240BA
:100EEC0008B5344B98421FD0334B984226D0334B25
:100EFC0098422DD0324B984234D0324B98423BD052
:100F0C00314B984242D0314B984249D0304B9842A9
:100F1C0000D008BD01212020FFF766FFBDE8084086
:100F2C0000212020FFF760BF01210846FFF75CFF7E
:100F3C00BDE8084000210120FFF756BF0121022027
:100F4C00FFF752FFBDE8084000210220FFF74CBF1D
:100F5C0001210420FFF748FFBDE8084000210420D0
:100F6C00FFF742BF01210820FFF73EFFBDE8084014
:100F7C0000210820FFF738BF01211020FFF734FFB4
:100F8C00BDE8084000211020FFF72EBF01214020B2
:100F9C00FFF72AFFBDE8084000214020FFF724BFDF
:100FAC0001218020FFF720FFBDE8084000218020B0
:100FBC00FFF71ABF00000240000402400008024084
:100FCC00000C02400010024000180240001C0240BD
:100FDC000014024000222DE9F04313464FF0010E9D
:100FEC004FF0030C0F6804E00133102B02F10202E6
:100FFC0023D00EFA03F434EA0705F5D10CFA02F605
:10100C00F6430D79D0F8009005FA02F809EA0609C2
:10101C00013D48EA0908012DC0F800800FD9C568C8
:10102C00CC790CFA02F6944025EA060501332C43E0
:10103C00102BC46002F10202DBD1BDE8F083D0F8C2
:10104C0008804D7906EA080695402E43866086880E
:10105C008D79B6B29D4026EA0406ACB23443848046
:10106C00DDE700BF00234FF6FF720371026043718E
:10107C008371C371704700BF4FF4803382B001930A
:10108C00019B0B430193019BC361C161019BC36134
:10109C00C3690193C369019302B07047038A194273
:1010AC0014BF012000207047008A80B2704700BF37
:1010BC00838A194214BF012000207047808A80B2B5
:1010CC00704700BF01837047418370470AB9418361
:1010DC0070470183704700BF81827047838A9BB23F
:1010EC0059408182704700BF10B40F24CB0800EB2D
:1010FC00830001F00701036A89008C4023EA040392
:10110C000362036A02FA01F11943016210BC7047D1
:10111C0008B5264B984218D0254B984221D0254B28
:10112C0098422AD0244B984233D0244B984200D07A
:10113C0008BD01214FF48010FFF76EFEBDE808409A
:10114C0000214FF48010FFF767BE01214FF480405F
:10115C00FFF756FEBDE8084000214FF48040FFF732
:10116C004FBE01214FF40030FFF756FEBDE808409A
:10117C0000214FF40030FFF74FBE01214FF48020C7
:10118C00FFF74AFEBDE8084000214FF48020FFF72E
:10119C0043BE01214FF40020FFF73EFEBDE808409E
:1011AC0000214FF40020FFF737BE00BF003801408C
:1011BC000044004000480040004C004000500040FB
:1011CC0070B50D460446038ACA889BB223F440537B
:1011DC0013438989038282892E89AB88688922F41A
:1011EC00B052334322F00C0203431204120C9BB294
:1011FC001343A381A38A84B09BB223F440730B43A3
:10120C006846A382FFF74EFD03991A48029BA289F8
:10121C00844208BF0B4612F4004F2A6803EB830389
:10122C0014BF5200920003EB8303B3FBF2F364226E
:10123C00114DA189A5FB0360400902FB10330A0480
:10124C004FEA00100AD41B013233A5FB0323C3F36E
:10125C00431303439BB2238104B070BDD9003231D8
:10126C00A5FB0131C1F3421242EA00039BB2238178
:10127C0004B070BD003801401F85EB5100234FF4C2
:10128C0016510C22016042818380C38003818381CB
:10129C00704700BF4A880B8810B48C881343C988E8
:1012AC00028A23430B4392B29BB222F47062134323
:1012BC00038210BC704700BF0023038043808380EF
:1012CC00C3807047838929B923F400531B041B0C7A
:1012DC00838170479BB243F400538381704700BFF6
:1012EC00038B03F47F430383038B9BB2194301836A
:1012FC00704700BF838919B9C3F30E03838170470C
:10130C006FEA43436FEA53439BB28381704700BF3C
:10131C00838A29B923F400631B041B0C8382704756
:10132C009BB243F400638382704700BFC1F3080192
:10133C00818070478088C0F308007047038A23F0CF
:10134C000F031B041B0C0382038A9BB219430182FB
:10135C00704700BF838929B923F002031B041B0CBF
:10136C00838170479BB243F002038381704700BFB7
:10137C00838923F400631B041B0C838183899BB238
:10138C0019438181704700BF038A23F020031B049B
:10139C001B0C0382038A9BB219430182704700BF66
:1013AC00038A29B923F480431B041B0C0382704766
:1013BC009BB243F480430382704700BF83899BB286
:1013CC0043F0010383817047838A29B923F0080312
:1013DC001B041B0C838270479BB243F0080383826F
:1013EC00704700BF038BDBB20383038B9BB243EAD2
:1013FC0001210183704700BF838A29B923F02003A0
:10140C001B041B0C838270479BB243F02003838226
:10141C00704700BF838A29B923F010031B041B0CEF
:10142C00838270479BB243F010038382704700BFE6
:10143C00838A23F004031B041B0C8382838A9BB2D4
:10144C0019438182704700BF838A29B923F00203B4
:10145C001B041B0C838270479BB243F002038382F4
:10146C00704700BF838A9BB21AB923EA01018182BB
:10147C007047194381827047012310B401F01F0497
:10148C00C1F34211012903FA04F30FD002290CBF56
:10149C00103014302AB9026810BC22EA030303602E
:1014AC007047026810BC1343036070470C30F1E7BF
:1014BC000388194214BF012000207047C94389B228
:1014CC00018070470123C1F3421210B4012A01F0CC
:1014DC001F0403FA04F315D0022A0CBF028A828A75
:1014EC0092B21340028892B24BB10123090A03FA5B
:1014FC0001F10A4214BF1846002010BC7047184670
:10150C0010BC7047828992B21340EBE70123090AA1
:10151C008B40DB439BB20380704700BFB0F1804F20
:10152C0008B522D0394B984229D0394B984230D04B
:10153C00384B984237D0384B98423ED0374B984274
:10154C0045D0374B98424CD0364B984253D0364B03
:10155C00984200D008BD01211020FFF751FCBDE8D6
:10156C00084000211020FFF74BBC01210846FFF773
:10157C0053FCBDE8084000210120FFF74DBC0121C0
:10158C000220FFF749FCBDE8084000210220FFF7CC
:10159C0043BC01210420FFF73FFCBDE808400021BB
:1015AC000420FFF739BC01210820FFF735FCBDE80A
:1015BC00084000210820FFF72FBC01211020FFF765
:1015CC002BFCBDE8084000211020FFF725BC0121B1
:1015DC002020FFF721FCBDE8084000212020FFF768
:1015EC001BBC01210420FFF70BFCBDE808400021C7
:1015FC000420FFF705BC01210820FFF701FCBDE822
:10160C00084000210820FFF7FBBB00BF000400408E
:10161C0000080040000C0040001000400014004086
:10162C0000080140000C0140001001400388B0F19B
:10163C00804F10B49BB21FD0124A90421CD002F5BE
:10164C008062904218D002F58062904214D00E4A0B
:10165C00904208D002F58062904204D023F440738B
:10166C000A899BB2134301224C6809880380C46227
:10167C00018510BC828270474A8823F070031343A3
:10168C00E5E700BF000400400010004000234FF0CD
:10169C00FF32038042600381438070470185828260
:1016AC00704700BF038823F070031B041B0C194305
:1016BC000180704741627047C1627047406A704751
:1016CC00008D80B2704700BF038829B923F0020354
:1016DC001B041B0C038070479BB243F00203038076
:1016EC00704700BF038829B923F004031B041B0CAB
:1016FC00038070479BB243F004030380704700BF24
:10170C00038829B923F080031B041B0C038070474A
:10171C009BB243F080030380704700BF038823F023
:10172C0008031B041B0C038003889BB21943018024
:10173C00704700BF038823F440731B041B0C038009
:10174C0003889BB219430180704700BF038829B9F5
:10175C0023F001031B041B0C038070479BB243F066
:10176C0001030380704700BF028C30B422F00102E9
:10177C001204120C0C890284038C028B4D8823F00A
:10178C0002031B0422F073022C431B0C0D88120461
:10179C0049682343120C2A439BB2416330BC028339
:1017AC0003847047028C70B422F010021204120CE5
:1017BC000C890284038C028B4E8823F0200322F4C4
:1017CC00E0420D881B04120434431B0C120C4968B4
:1017DC0043EA041342EA05229BB292B2816370BCC5
:1017EC0002830384704700BF028C30B422F48072F1
:1017FC001204120C0C890284038C828B4D8823F406
:10180C0000731B0422F070022C431B0C0D88120475
:10181C00496843EA0423120C2A439BB2C16330BCCF
:10182C0082830384704700BF028C70B422F4805210
:10183C001204120C0C890284038C828B4E8823F4C4
:10184C00005322F4E0420D881B04120434431B0C99
:10185C00120C496843EA043342EA05229BB292B265
:10186C00016470BC82830384704700BF0023038033
:10187C00438043600381704710B40124038C8C4077
:10188C009BB223EA040321F00804038418306CB1E2
:10189C000439C1F34E010B58120223F4E0430B50F0
:1018AC000B5892B21A430A5010BC704749080B5897
:1018BC0010BC23F070030B500B581A430A5070479E
:1018CC004163704781637047C1637047016470471F
:1018DC00038B23F070031B041B0C1943018370470B
:1018EC00038B23F4E0431B041B0C43EA012189B254
:1018FC0001837047838B23F070031B041B0C19436B
:10190C0081837047838B23F4E0431B041B0C43EA55
:10191C00012189B281837047038B23F008031B04D8
:10192C001B0C194301837047038B23F400631B04C6
:10193C001B0C43EA012189B201837047838B23F08E
:10194C0008031B041B0C194381837047838B23F4FE
:10195C0000631B041B0C43EA012189B2818370478D
:10196C00038B23F004031B041B0C194301837047E6
:10197C00038B23F480631B041B0C43EA012189B203
:10198C0001837047838B23F004031B041B0C194346
:10199C0081837047838B23F480631B041B0C43EA05
:1019AC00012189B281837047038B23F080031B04D0
:1019BC001B0C194301837047038BC3F30E0343EADB
:1019CC00012189B201837047838B23F080031B04B0
:1019DC001B0C194381837047838BC3F30E0343EABB
:1019EC00012189B281837047038C23F002031B040D
:1019FC001B0C194301847047038C23F020031B0438
:101A0C001B0C43EA011189B201847047038C23F447
:101A1C0000731B041B0C43EA012189B2018470473B
:101A2C00038C23F400531B041B0C43EA013189B2D1
:101A3C0001847047038923F008031B041B0C0381EA
:101A4C0003899BB219430181704700BF10B4012474
:101A5C00038C8C409BB223EA04030384038C02FAAC
:101A6C0001F1194389B2018410BC70470B88F0B5A1
:101A7C00002B31D0042B55D0082B7FD045F6FF73AB
:101A8C0040F6FF42048C4E8824F480542404240C29
:101A9C00B1F804E00D890484878BB0F820C02C03C6
:101AAC0003EA0C0344EA0E243A4043F480532243E5
:101ABC0043EA063392B29BB282830384828BC98839
:101ACC0022F440621204120C8283838B9BB243EA91
:101ADC0001239BB28383F0BD028C4C8822F001025F
:101AEC001204120C8B880E890284058B028CADB209
:101AFC0025F0F30592B22B4322F00A0243EA0613B7
:101B0C0022439BB242F0010203830284038BCA88F6
:101B1C0023F00C031B041B0C0383038B9BB213439A
:101B2C000383F0BD40F6FF42048C4D8824F0100472
:101B3C002404240C8E88B1F808E00484078B038CF1
:101B4C0034029BB223F0A00344EA0E343A4043F033
:101B5C001003224343EA051392B29BB2028303841F
:101B6C00028BC98822F440621204120C0283038B8C
:101B7C009BB243EA01239BB20383F0BD048C4D88D6
:101B8C0024F480742404240C8A880E890484848BA5
:101B9C00038CA4B29BB224F0F30423F420632243FD
:101BAC0043F4807342EA061243EA052392B29BB2D5
:101BBC0082830384838BCA8823F00C031B041B0CC5
:101BCC008383838B9BB213438383F0BD0023012259
:101BDC00038082804380C38003817047F0B54F88B7
:101BEC008E88002F0B880CBF02220022012E0CBF06
:101BFC0002240124002B4CD040F6FF4E038C0D899F
:101C0C0023F010031B041B0C0384B0F818C0038CC6
:101C1C0036029BB223F0A00346EA05360EEA0C0E00
:101C2C0043F010034EEA060643EA0713B6B29BB222
:101C3C0006830384038BCE8823F440631B041B0CA4
:101C4C000383038B9BB243EA06239BB20383038C6F
:101C5C0023F001031B041B0C0384038B018C9BB22C
:101C6C0023F0F30389B243EA051321F00A019BB276
:101C7C0041F0010123430A4303830284038B23F0C5
:101C8C000C031B041B0C0383038B9BB21E430683A8
:101C9C00F0BD038C40F6FF4C23F001031B041B0C1E
:101CAC00B1F808E00384058B038CADB225F0F30585
:101CBC009BB22E4323F00A0346EA0E163B4343F035
:101CCC000103B6B206830384058BCB8825F00C0187
:101CDC000904090C0183018B89B219430183018C1E
:101CEC0021F010010904090C0184058B018C0CEA0C
:101CFC00050C89B24CEA0E3E21F0A0011FFA8EFEB3
:101D0C0041F0100141EA02124EEA042404830284D9
:101D1C00028B22F440621204120C0283028B92B2E8
:101D2C0042EA03239BB20383F0BD00BF406B7047B4
:101D3C00806B7047C06B7047006C7047038B23F04F
:101D4C000C031B041B0C0383038B9BB219430183F1
:101D5C00704700BF038B23F440631B041B0C0383ED
:101D6C00038B9BB243EA012189B20183704700BF08
:101D7C00838B23F00C031B041B0C8383838B9BB280
:101D8C0019438183704700BF838B23F440631B048A
:101D9C001B0C8383838B9BB243EA012189B2818321
:101DAC00704700BF81827047038A194214BF01201B
:101DBC0000207047C94389B201827047038A828927
:101DCC0011EA030092B203D0114214BF012000208B
:101DDC00704700BFC94389B2018270470A43A0F81B
:101DEC004820704783899BB21AB923EA010181818B
:101DFC007047194381817047FFF7F4BF838829B975
:101E0C0023F008031B041B0C838070479BB243F028
:101E1C0008038380704700BF038923F007031B046A
:101E2C001B0C0381704700BF038923F070031B0454
:101E3C001B0C1943018103899BB243F007030381F7
:101E4C00704700BF602970B427D0068C42F00102A5
:101E5C0026F001063604360C0684058B068C25F01C
:101E6C00F3042404240C26F00A0544EA03142D047C
:101E7C0044F001042D0CA4B215430483058403899A
:101E8C0070BC23F070031B041B0C194301810389E4
:101E9C009BB243F007030381704740F6FF44058C67
:101EAC0025F010052D042D0C0584068B058C344073
:101EBC0025F0A0052D042D0C44EA033345EA02124B
:101ECC0043F4807342F010029BB292B203830284FB
:101EDC00D5E700BF10B4048942EA03231943E4B2E6
:101EEC00214389B20181038910BC23F077031B04C1
:101EFC001B0C43F077030381704700BF10B40489B7
:101F0C0042EA03231943E4B2214389B201810389D4
:101F1C0010BC9BB243F4804303817047038923F0C8
:101F2C0070031B041B0C194301817047838823F039
:101F3C0070031B041B0C838083889BB21943818024
:101F4C00704700BF038923F007031B041B0C03819C
:101F5C0003899BB219430181704700BF038923F0A9
:101F6C0080031B041B0C038103899BB21943018161
:101F7C00704700BF10B404890A43E4B242EA032359
:101F8C0023439BB2038110BC704700BF70B4068919
:101F9C00048B058C24F4407424F0030425F02205F2
:101FAC0026F0070624042D0442EA03133604240CFD
:101FBC002D0C360C44F480741D43314344F0010461
:101FCC00ADB201810483058470BC7047838829B944
:101FDC0023F080031B041B0C838070479BB243F0DF
:101FEC0080038380704700BFB0F8503003EA114380
:101FFC00A0F85030B0F85030194389B2A0F8501006
:10200C00704700BF30B400254FF000640D4B0E4AF2
:10201C0019680E4841F48071196099680A409A60F9
:10202C001A6822F0885222F001121A601A6822F4FF
:10203C0080221A609A6822F47D029A60DD608460C6
:10204C0030BC7047003802400CC0FF8800ED00E047
:10205C001E4B10B49B6803F00C030C2B08D8DFE864
:10206C0003F0070707071E0707071B0707072100D1
:10207C004FF400431549164A4968C1F34231013106
:10208C008B4012491348896810BCC1F303110A44F0
:10209C00127BD340036070470F4B0D4AF1E70F4B97
:1020AC000B4AEEE709480A4A816883688468C1F3E1
:1020BC008341505CE10354BF08490749C3F3815382
:1020CC0001FB00F10133B1FBF3F3DAE70038024016
:1020DC00542100081C00002000127A000024F40097
:1020EC0008B5FEF755F8FEF7DFF90020FEF708F803
:1020FC000120FEF705F80420FEF702F8F5E700BF13
:10210C00002103E00A4B5B584350043109480A4B49
:10211C0042189A42F6D3094A02E0002342F8043BE3
:10212C00074B9A42F9D3FFF76DFFFFF7D9FF7047C2
:10213C007821000800000020200000202000002052
:08214C0028000020FEE700005E
:10215400030406080C1018203000000000000000E2
:102164000000000001020304060708090000000043
:04217400010203045D
:10217800030406080C1018203000000000000000BE
:1021880001020304010203040607080968FF1F008F
:040000050800210DC1
:00000001FF
